{
  "contractName": "Carpooling",
  "abi": [
    {
      "inputs": [],
      "name": "rideCount",
      "outputs": [
        {
          "internalType": "uint256",
          "name": "",
          "type": "uint256"
        }
      ],
      "stateMutability": "view",
      "type": "function"
    },
    {
      "inputs": [
        {
          "internalType": "uint256",
          "name": "",
          "type": "uint256"
        }
      ],
      "name": "rides",
      "outputs": [
        {
          "internalType": "address",
          "name": "driver",
          "type": "address"
        },
        {
          "internalType": "uint256",
          "name": "departureTime",
          "type": "uint256"
        },
        {
          "internalType": "uint256",
          "name": "availableSeats",
          "type": "uint256"
        },
        {
          "internalType": "uint256",
          "name": "pricePerSeat",
          "type": "uint256"
        }
      ],
      "stateMutability": "view",
      "type": "function"
    },
    {
      "inputs": [
        {
          "internalType": "uint256",
          "name": "_departureTime",
          "type": "uint256"
        },
        {
          "internalType": "uint256",
          "name": "_availableSeats",
          "type": "uint256"
        },
        {
          "internalType": "uint256",
          "name": "_pricePerSeat",
          "type": "uint256"
        }
      ],
      "name": "addRide",
      "outputs": [],
      "stateMutability": "nonpayable",
      "type": "function"
    },
    {
      "inputs": [
        {
          "internalType": "uint256",
          "name": "_departureTime",
          "type": "uint256"
        },
        {
          "internalType": "uint256",
          "name": "_maxPricePerSeat",
          "type": "uint256"
        }
      ],
      "name": "findAvailableRides",
      "outputs": [
        {
          "internalType": "uint256[]",
          "name": "",
          "type": "uint256[]"
        }
      ],
      "stateMutability": "view",
      "type": "function"
    },
    {
      "inputs": [
        {
          "internalType": "uint256",
          "name": "_rideId",
          "type": "uint256"
        }
      ],
      "name": "bookRide",
      "outputs": [],
      "stateMutability": "payable",
      "type": "function"
    },
    {
      "inputs": [
        {
          "internalType": "uint256",
          "name": "_rideId",
          "type": "uint256"
        }
      ],
      "name": "cancelBooking",
      "outputs": [],
      "stateMutability": "nonpayable",
      "type": "function"
    }
  ],
  "bytecode": "0x608060405234801561001057600080fd5b50610713806100206000396000f3fe6080604052600436106100555760003560e01c80630dca825e1461005a5780635205f1121461007c578063740b6a93146100b5578063add11461146100e2578063b47c188314610102578063c69b2cf614610124575b600080fd5b34801561006657600080fd5b5061007a61007536600461050f565b610137565b005b34801561008857600080fd5b5061009c61009736600461050f565b6101df565b6040516100ac9493929190610573565b60405180910390f35b3480156100c157600080fd5b506100d56100d0366004610527565b610210565b6040516100ac9190610599565b3480156100ee57600080fd5b5061007a6100fd366004610548565b6103ce565b34801561010e57600080fd5b5061011761041c565b6040516100ac919061068c565b61007a61013236600461050f565b610422565b600081815260208181526040808320338452600481019092529091205460ff1661017c5760405162461bcd60e51b815260040161017390610668565b60405180910390fd5b3360009081526004820160205260408120805460ff19169055600282018054916101a5836106ac565b90915550506003810154604051339180156108fc02916000818181858888f193505050501580156101da573d6000803e3d6000fd5b505050565b60006020819052908152604090208054600182015460028301546003909301546001600160a01b0390921692909184565b6060600060015467ffffffffffffffff81111561023d57634e487b7160e01b600052604160045260246000fd5b604051908082528060200260200182016040528015610266578160200160208202803683370190505b509050600060015b60015481116102fe57600081815260208190526040902060018101548714801561029c575085816003015411155b80156102ac575060008160020154115b156102eb57818484815181106102d257634e487b7160e01b600052603260045260246000fd5b6020908102919091010152826102e7816106ac565b9350505b50806102f6816106ac565b91505061026e565b5060008167ffffffffffffffff81111561032857634e487b7160e01b600052604160045260246000fd5b604051908082528060200260200182016040528015610351578160200160208202803683370190505b50905060005b828110156103c45783818151811061037f57634e487b7160e01b600052603260045260246000fd5b60200260200101518282815181106103a757634e487b7160e01b600052603260045260246000fd5b6020908102919091010152806103bc816106ac565b915050610357565b5095945050505050565b600180549060006103de836106ac565b909155505060018054600090815260208190526040902080546001600160a01b03191633178155908101939093556002830191909155600390910155565b60015481565b600081815260208190526040902060028101546104515760405162461bcd60e51b81526004016101739061063c565b33600090815260048201602052604090205460ff16156104835760405162461bcd60e51b8152600401610173906105dd565b806003015434146104a65760405162461bcd60e51b815260040161017390610605565b3360009081526004820160205260408120805460ff19166001179055600282018054916104d283610695565b909155505080546040516001600160a01b03909116903480156108fc02916000818181858888f193505050501580156101da573d6000803e3d6000fd5b600060208284031215610520578081fd5b5035919050565b60008060408385031215610539578081fd5b50508035926020909101359150565b60008060006060848603121561055c578081fd5b505081359360208301359350604090920135919050565b6001600160a01b0394909416845260208401929092526040830152606082015260800190565b6020808252825182820181905260009190848201906040850190845b818110156105d1578351835292840192918401916001016105b5565b50909695505050505050565b6020808252600e908201526d105b1c9958591e48189bdbdad95960921b604082015260600190565b60208082526018908201527f496e636f7272656374207061796d656e7420616d6f756e740000000000000000604082015260600190565b6020808252601290820152714e6f20617661696c61626c6520736561747360701b604082015260600190565b6020808252600a9082015269139bdd08189bdbdad95960b21b604082015260600190565b90815260200190565b6000816106a4576106a46106c7565b506000190190565b60006000198214156106c0576106c06106c7565b5060010190565b634e487b7160e01b600052601160045260246000fdfea2646970667358221220461c94ae42baa72ab61f39daa956390fabfde6213d1371194d5effe2b20bbd1164736f6c63430008000033",
  "immutableReferences": {},
  "source": "// SPDX-License-Identifier: MIT\r\npragma solidity ^0.8.0;\r\n\r\ncontract Carpooling {\r\nstruct Ride {\r\naddress driver;\r\nuint256 departureTime;\r\nuint256 availableSeats;\r\nuint256 pricePerSeat;\r\nmapping (address => bool) passengers;\r\n}\r\n\r\nmapping (uint256 => Ride) public rides;\r\nuint256 public rideCount;\r\n\r\nfunction addRide(uint256 _departureTime, uint256 _availableSeats, uint256 _pricePerSeat) public {\r\n    rideCount++;\r\n    Ride storage newRide = rides[rideCount];\r\n    newRide.driver = msg.sender;\r\n    newRide.departureTime = _departureTime;\r\n    newRide.availableSeats = _availableSeats;\r\n    newRide.pricePerSeat = _pricePerSeat;\r\n}\r\n\r\nfunction findAvailableRides(uint256 _departureTime, uint256 _maxPricePerSeat) public view returns (uint256[] memory) {\r\n    uint256[] memory results = new uint256[](rideCount);\r\n    uint256 count = 0;\r\n\r\n    for (uint256 i = 1; i <= rideCount; i++) {\r\n        Ride storage ride = rides[i];\r\n        if (ride.departureTime == _departureTime && ride.pricePerSeat <= _maxPricePerSeat && ride.availableSeats > 0) {\r\n            results[count] = i;\r\n            count++;\r\n        }\r\n    }\r\n\r\n    uint256[] memory finalResults = new uint256[](count);\r\n    for (uint256 i = 0; i < count; i++) {\r\n        finalResults[i] = results[i];\r\n    }\r\n\r\n    return finalResults;\r\n}\r\n\r\nfunction bookRide(uint256 _rideId) public payable {\r\n    Ride storage ride = rides[_rideId];\r\n    require(ride.availableSeats > 0, \"No available seats\");\r\n    require(!ride.passengers[msg.sender], \"Already booked\");\r\n    require(msg.value == ride.pricePerSeat, \"Incorrect payment amount\");\r\n\r\n    ride.passengers[msg.sender] = true;\r\n    ride.availableSeats--;\r\n\r\n    payable(ride.driver).transfer(msg.value);\r\n}\r\n\r\nfunction cancelBooking(uint256 _rideId) public {\r\n    Ride storage ride = rides[_rideId];\r\n    require(ride.passengers[msg.sender], \"Not booked\");\r\n\r\n    ride.passengers[msg.sender] = false;\r\n    ride.availableSeats++;\r\n    payable(msg.sender).transfer(ride.pricePerSeat);\r\n}\r\n\r\n}",
  "sourcePath": "C:\\Users\\Aradana\\carpooling-project\\contracts\\Carpooling.sol",
  "compiler": {
    "name": "solc",
    "version": "0.8.0+commit.c7dfd78e.Emscripten.clang"
  },
  "schemaVersion": "3.4.13",
  "updatedAt": "2023-04-25T05:41:03.526Z",
  "devdoc": {
    "kind": "dev",
    "methods": {},
    "version": 1
  },
  "userdoc": {
    "kind": "user",
    "methods": {},
    "version": 1
  }
}